:1000000007EF00F0FF00FF007A82CDED0BF068EF04
:1000100013F0FF00FF00FF00FF00FF00FF00FF00E4
:10100000000708092F0405062A0102032D43303D7D
:101010002B53796E746178204572726F72210025AE
:1010200069000000000E4E6E2DEF0AF0940E0A6E5D
:101030004E50770F0B6EDCEC0FF04E50770FD96EE1
:10104000DA6ADE28D8B427EF08F029EF08F02DEF90
:101050000AF04E50D8A42FEF08F031EF08F07FEFE0
:1010600008F03D0E7718D8B438EF08F03AEF08F0E2
:101070005EEF08F02B0E7718D8B441EF08F043EF7D
:1010800008F05EEF08F02D0E7718D8B44AEF08F09C
:101090004CEF08F05EEF08F02A0E7718D8B453EF43
:1010A00008F055EF08F05EEF08F02F0E7718D8A47F
:1010B0005CEF08F05EEF08F07FEF08F06A0E126E4A
:1010C000110E136E1350D8A4100E146E0AEC12F009
:1010D000150E2E6E4B0E2D6EBE0EE82EFED72D2E4B
:1010E000FCD72E2EFAD700D06A0E0C6E010E0D6EB4
:1010F000C4EC12F07768000E4E6E2DEF0AF04E50E1
:10110000770FD96EDA6A430EDE18D8A48AEF08F09A
:101110008CEF08F0A7EF08F06A0E0C6E010E0D6E52
:10112000C4EC12F0000E4E6E020E4E649AEF08F000
:101130009CEF08F09EEF08F07BEF08F04E50770F21
:10114000D96EDA6AFF0EDF6E4E2A94EF08F04E5029
:10115000770FD96EDA6A3D0EDE18D8A4B2EF08F028
:10116000B4EF08F022EF09F06A0E0C6E4E50770FC4
:10117000D96EDA6ADF500D6E89EC12F0000E4E6EF9
:10118000EDEF08F04E50770FD96EDA6A300EDE18A8
:10119000D8A4CDEF08F0CFEF08F0DCEF08F06A0E2E
:1011A0000C6E4E50770FD96EDA6ADF500D6E89ECF7
:1011B00012F04E2AEDEF08F06A0E166E4E50770FC1
:1011C000D96EDA6ADF502D6E2D50176E186A196AC3
:1011D0001A6AB5EC0EF0D9EF08F04E50770FD96EC1
:1011E000DA6A3D0EDE18D8A4F8EF08F0FAEF08F03E
:1011F000C2EF08F0000E4E6E020E4E6402EF09F0D0
:1012000004EF09F006EF09F00FEF09F04E50770FE9
:10121000D96EDA6AFF0EDF6E4E2AFCEF08F0000E80
:101220004E6E430E7718D8A418EF09F01AEF09F0A4
:101230002DEF0AF06A0E0C6E010E0D6EC4EC12F06A
:101240007BEF08F04E50770FD96EDA6A2B0EDE185E
:10125000D8B42DEF09F02FEF09F056EF09F04E50FA
:10126000770FD96EDA6A2D0EDE18D8B43AEF09F08E
:101270003CEF09F056EF09F04E50770FD96EDA6A5D
:101280002A0EDE18D8B447EF09F049EF09F056EFFF
:1012900009F04E50770FD96EDA6A2F0EDE18D8A4F7
:1012A00054EF09F056EF09F06EEF09F06A0E0C6E7C
:1012B0004E50770FD96EDA6ADF500D6E89EC12F05E
:1012C0004E50770FD96EDA6ADF504D6E4E50770F61
:1012D000D96EDA6AFF0EDF6E35EF0AF0020E4E1895
:1012E000D8A475EF09F077EF09F0F7EF09F02B0EAE
:1012F0007918D8A47EEF09F080EF09F0A4EF09F087
:101300002D0E7918D8A487EF09F089EF09F0A4EF22
:1013100009F02A0E7918D8A490EF09F092EF09F09D
:10132000A4EF09F02F0E7918D8A499EF09F09BEFDC
:1013300009F0A4EF09F03D0E7918D8B4A2EF09F036
:10134000A4EF09F0F7EF09F06A0E166E7950176EE8
:10135000186A196A1A6AB5EC0EF0820E2D6EDE0E4E
:10136000E82EFED72D2EFCD76A0E0C6E010E0D6EE8
:10137000C4EC12F0020E2E6E040E2D6EBA0EE82E84
:10138000FED72D2EFCD72E2EFAD700D06A0E126E65
:10139000110E136E1350D8A4100E146E0AEC12F036
:1013A000150E2E6E4B0E2D6EBE0EE82EFED72D2E78
:1013B000FCD72E2EFAD700D06A0E0C6E010E0D6EE1
:1013C000C4EC12F0000E4E6E020E4E64EAEF09F00D
:1013D000ECEF09F0EEEF09F07BEF08F04E50770FDD
:1013E000D96EDA6AFF0EDF6E4E2AE4EF09F04E5036
:1013F000770FD96EDA6A300EDE18D8A402EF0AF041
:1014000004EF0AF01CEF0AF06A0E0C6E4E50770FD4
:10141000D96EDA6ADF500D6E89EC12F04E50770FFC
:10142000D96EDA6A4E50770FE16EE26AE750D00F5C
:10143000DF6E4E2A2DEF0AF06A0E166E4E50770FB1
:10144000D96EDA6ADF502D6E2D50176E186A196A40
:101450001A6AB5EC0EF019EF0AF0020E4E6433EF83
:101460000AF035EF0AF016EF08F01200000E4E6E8B
:10147000C4EF0BF0940E0A6E4E50740F0B6EDCEC42
:101480000FF04E50740FD96EDA6ADE28D8B44BEFE5
:101490000AF04DEF0AF0C4EF0BF04E50D8A453EF12
:1014A0000AF055EF0AF0D1EF0AF03D0E7418D8B4E7
:1014B0005CEF0AF05EEF0AF082EF0AF02B0E741870
:1014C000D8B465EF0AF067EF0AF082EF0AF02D0E4C
:1014D0007418D8B46EEF0AF070EF0AF082EF0AF0D9
:1014E0002A0E7418D8B477EF0AF079EF0AF082EF79
:1014F0000AF02F0E7418D8A480EF0AF082EF0AF0D9
:10150000D1EF0AF06A0E0C6E010E0D6EC4EC12F0F3
:10151000020E306E040E2F6EBA0EE82EFED72F2E5E
:10152000FCD7302EFAD700D06A0E126E110E136E51
:101530001350D8A4100E146E0AEC12F0150E306E73
:101540004B0E2F6EBE0EE82EFED72F2EFCD7302E60
:10155000FAD700D06A0E0C6E010E0D6EC4EC12F0BC
:10156000000E4E6E020E4E64B8EF0AF0BAEF0AF0AB
:10157000BCEF0AF0CBEF0AF04E50740FD96EDA6A66
:10158000FF0EDF6E4E50770FD96EDA6AFF0EDF6EF8
:101590004E2AB2EF0AF012EC08F0000E4E6EC4EFC5
:1015A0000BF0020E4E18D8A4D8EF0AF0DAEF0AF0CA
:1015B00041EF0BF03D0E7618D8B4E1EF0AF0E3EFFF
:1015C0000AF041EF0BF06A0E166E7650176E186A2D
:1015D000196A1A6AB5EC0EF0020E306E040E2F6E08
:1015E000BA0EE82EFED72F2EFCD7302EFAD700D019
:1015F0006A0E0C6E010E0D6EC4EC12F0020E306E0F
:10160000040E2F6EBA0EE82EFED72F2EFCD7302EEA
:10161000FAD700D06A0E126E110E136E1350D8A4B2
:10162000100E146E0AEC12F0150E306E4B0E2F6E6B
:10163000BE0EE82EFED72F2EFCD7302EFAD700D0C4
:101640006A0E0C6E010E0D6EC4EC12F0000E4E6EA2
:10165000020E4E642EEF0BF030EF0BF032EF0BF07A
:10166000CBEF0AF04E50740FD96EDA6AFF0EDF6EC0
:101670004E50770FD96EDA6AFF0EDF6E4E2A28EFD2
:101680000BF04E50740FD96EDA6A430EDE18D8A4F0
:101690004CEF0BF04EEF0BF06FEF0BF06A0E0C6E91
:1016A000010E0D6EC4EC12F0000E4E6E020E4E6472
:1016B0005CEF0BF05EEF0BF060EF0BF0CBEF0AF09E
:1016C0004E50740FD96EDA6AFF0EDF6E4E50770FF0
:1016D000D96EDA6AFF0EDF6E4E2A56EF0BF04E50CF
:1016E000740FD96EDA6A3D0EDE18D8A47AEF0BF0CB
:1016F0007CEF0BF08EEF0BF06A0E0C6E4E50740FF9
:10170000D96EDA6ADF500D6E89EC12F04E50740F0C
:10171000D96EDA6AFF0EDF6ECCEF0BF04E50740F0D
:10172000D96EDA6A300EDE18D8A499EF0BF09BEF71
:101730000BF0B3EF0BF06A0E0C6E4E50740FD96EB7
:10174000DA6ADF500D6E89EC12F04E50740FD96ECC
:10175000DA6A4E50740FE16EE26AE750D00FDF6E26
:101760004E2AC4EF0BF06A0E166E4E50740FD96EEF
:10177000DA6ADF502F6E2F50176E186A196A1A6ACC
:10178000B5EC0EF0B0EF0BF0020E4E64CAEF0BF0AA
:10179000CCEF0BF03AEF0AF012000600F2A8D3EFFC
:1017A0000BF0D5EF0BF0DEEF0BF0F2A2DAEF0BF05F
:1017B000DCEF0BF0DEEF0BF09DEC14F0F0A6E3EFA6
:1017C0000BF0E5EF0BF0EEEF0BF0F0A0EAEF0BF013
:1017D000ECEF0BF0EEEF0BF09BEC14F0F0A8F3EF56
:1017E0000BF0F5EF0BF0FEEF0BF0F0A2FAEF0BF0C1
:1017F000FCEF0BF0FEEF0BF099EC14F0F2A603EF08
:101800000CF005EF0CF020EF0CF0F2A00AEF0CF05A
:101810000CEF0CF020EF0CF081A811EF0CF013EF9F
:101820000CF020EF0CF06904D8A419EF0CF01BEFBA
:101830000CF020EF0CF0000E696E000E8CEC14F032
:10184000F2A625EF0CF027EF0CF042EF0CF0F2A01F
:101850002CEF0CF02EEF0CF042EF0CF081B833EFD0
:101860000CF035EF0CF042EF0CF06950D8A43BEFD0
:101870000CF03DEF0CF042EF0CF0010E696E010E22
:101880008CEC14F0F2A647EF0CF049EF0CF064EF8B
:101890000CF0F2A04EEF0CF050EF0CF064EF0CF0F7
:1018A00081AA55EF0CF057EF0CF064EF0CF06804D0
:1018B000D8A45DEF0CF05FEF0CF064EF0CF0000EBD
:1018C000686E000E7FEC14F0F2A669EF0CF06BEF7F
:1018D0000CF086EF0CF0F2A070EF0CF072EF0CF051
:1018E00086EF0CF081BA77EF0CF079EF0CF086EF11
:1018F0000CF06850D8A47FEF0CF081EF0CF086EF6D
:101900000CF0010E686E010E7FEC14F0F2A68BEF66
:101910000CF08DEF0CF0A8EF0CF0F2A092EF0CF0B1
:1019200094EF0CF0A8EF0CF081AC99EF0CF09BEF6A
:101930000CF0A8EF0CF06704D8A4A1EF0CF0A3EF13
:101940000CF0A8EF0CF0000E676E000E72EC14F0B5
:10195000F2A6ADEF0CF0AFEF0CF0CAEF0CF0F2A076
:10196000B4EF0CF0B6EF0CF0CAEF0CF081BCBBEF9B
:101970000CF0BDEF0CF0CAEF0CF06750D8A4C3EF29
:101980000CF0C5EF0CF0CAEF0CF0010E676E010E03
:1019900072EC14F0F2A6CFEF0CF0D1EF0CF0ECEFFC
:1019A0000CF0F2A0D6EF0CF0D8EF0CF0ECEF0CF04E
:1019B00081AEDDEF0CF0DFEF0CF0ECEF0CF0660425
:1019C000D8A4E5EF0CF0E7EF0CF0ECEF0CF0000E14
:1019D000666E000E65EC14F0F2A6F1EF0CF0F3EF7A
:1019E0000CF00EEF0DF0F2A0F8EF0CF0FAEF0CF0A7
:1019F0000EEF0DF081BEFFEF0CF001EF0DF00EEFDA
:101A00000DF06650D8A407EF0DF009EF0DF00EEFC2
:101A10000DF0010E666E010E65EC14F07A92110065
:101A20006A0E126E52EC10F0940E0D6E34EC13F040
:101A300012EC08F036EC0AF0F1EF0DF05A0E026EDF
:101A4000590E036E770E046E740E056E1FEC11F0C6
:101A500059505AC031F0326A3126000E322231C05C
:101A600033F032C034F0000E34BEFF0E356E366EE9
:101A70003350341035103610D8A441EF0DF043EF39
:101A80000DF04BEF0DF06A0E0C6E300E0D6E89EC02
:101A900012F014EF0EF06A0E166E33C017F034C059
:101AA00018F035C019F036C01AF0B5EC0EF014EF8E
:101AB0000EF05A0E026E590E036E770E046E740EFF
:101AC000056E1FEC11F059505AC031F0326A315E88
:101AD000000E325A31C033F032C034F0000E34BE42
:101AE000FF0E356E366E3350341035103610D8A4D4
:101AF0007CEF0DF07EEF0DF080EF0DF043EF0DF079
:101B000036BE87EF0DF085EF0DF04BEF0DF06A0E4E
:101B10000C6E2D0E0D6E89EC12F033C002F034C045
:101B200003F035C004F036C005F0FF0E066EFF0E60
:101B3000076EFF0E086EFF0E096EFFEC12F002C07A
:101B400033F003C034F004C035F005C036F04BEF7D
:101B50000DF05A0E026E590E036E770E046E740E5F
:101B6000056E1FEC11F05A505902F3CF31F0F4CF4B
:101B700032F031C033F032C034F0000E34BEFF0E0C
:101B8000356E366E3350341035103610D8A4CBEF86
:101B90000DF0CDEF0DF04BEF0DF043EF0DF05A0EC1
:101BA000026E590E036E770E046E740E056E1FECF6
:101BB00011F059C002F05A509AEC13F0316E3150C6
:101BC000336E346A356A366A335034103510361045
:101BD000D8A4EDEF0DF0EFEF0DF04BEF0DF043EF6C
:101BE0000DF04D50316E326A3250000AD8B4FBEF1E
:101BF0000DF014EF0EF031502A0AD8B4A9EF0DF011
:101C0000010AD8B41EEF0DF0060AD8B459EF0DF052
:101C1000020AD8B4CFEF0DF014EF0EF0940E0A6E56
:101C20005B0E0B6EDCEC0FF0430E5B18D8A41BEFC1
:101C30000EF01DEF0EF00EEF0EF007EF00F0010EAC
:101C4000096E0250D8B427EF0EF029EF0EF047EFDF
:101C50000EF00250D96EDA6ADF30E832E832070B54
:101C6000046E080E046037EF0EF039EF0EF047EF08
:101C70000EF00250D96EDA6ADF50070B046E040EC4
:101C8000046445EF0EF047EF0EF09EEF0EF0000EED
:101C9000096EB3EF0EF00250D96EDA6ADF30E83227
:101CA000E832070B046E010E056E042A5AEF0EF09F
:101CB000D8900536042E58EF0EF00250D96EDA6A2D
:101CC000DF50070B020DF3505C0FD96EDA6ADECFDE
:101CD00006F0DDCF07F006C0D9FF07C0DAFF0550D8
:101CE000DF12B3EF0EF00250D96EDA6ADF30E8325D
:101CF000E832070B046E010E056E042A82EF0EF027
:101D0000D8900536042E80EF0EF00550FF0A066EBF
:101D10000250D96EDA6ADF50070B020DF3505C0FE8
:101D2000D96EDA6ADECF07F0DDCF08F007C0D9FF41
:101D300008C0DAFF0650DF16B3EF0EF00350046E52
:101D4000056A0550000AD8B4A8EF0EF047EF0EF070
:101D50000450000AD8B473EF0EF0010AD8B44BEF68
:101D60000EF047EF0EF009501200010E266E1650CD
:101D7000D8A4BDEF0EF0BFEF0EF0C3EF0EF0000ED3
:101D8000266E47EF0FF0000E2C6E17C027F018C01C
:101D900028F019C029F01AC02AF0EAEF0EF02C2A18
:101DA00027C002F028C003F029C004F02AC005F0C3
:101DB0000A0E066E000E076E000E086E000E096E0B
:101DC00074EC11F002C027F003C028F004C029F021
:101DD00005C02AF02750281029102A10D8A4F3EFA4
:101DE0000EF0F5EF0EF0CFEF0EF0000E2B6E32EF8F
:101DF0000FF017C002F018C003F019C004F01AC0A9
:101E000005F00A0E066E000E076E000E086E000E3C
:101E1000096EC6EC11F00250256E17C002F018C012
:101E200003F019C004F01AC005F00A0E066E000E89
:101E3000076E000E086E000E096E74EC11F002C001
:101E400017F003C018F004C019F005C01AF02B50A9
:101E50001B082C24D96EDA6AFF0ED9262550300FC4
:101E6000DF6E2B2A2C502B5CD8A039EF0FF03BEF04
:101E70000FF0F9EF0EF02C501B0FD96EDA6ADF6A03
:101E800016C012F01B0E136E146A0AEC12F02650E4
:101E90001200010E086E0250D8B451EF0FF053EF4C
:101EA0000FF063EF0FF00250D96EDA6ADF30E832DC
:101EB000E832070B036E070E036461EF0FF063EF68
:101EC0000FF0BAEF0FF0000E086EDAEF0FF00250CD
:101ED000D96EDA6ADF30E832E832070B036E010EA2
:101EE000046E032A76EF0FF0D8900436032E74EFB9
:101EF0000FF00450FF0A056E0250D96EDA6ADF5007
:101F0000070B020DF3508A0FD96EDA6ADECF06F0A6
:101F1000DDCF07F006C0D9FF07C0DAFF0550DF1696
:101F2000DAEF0FF00250D96EDA6ADF30E832E832C9
:101F3000070B036E010E046E032AA1EF0FF0D89079
:101F40000436032E9FEF0FF00250D96EDA6ADF508D
:101F5000070B020DF3508A0FD96EDA6ADECF05F057
:101F6000DDCF06F005C0D9FF06C0DAFF0450DF124E
:101F7000DAEF0FF00250D96EDA6ADFBCC2EF0FF071
:101F8000C5EF0FF0010EC6EF0FF0000E036E046AEE
:101F90000450000AD8B4CFEF0FF063EF0FF00350F6
:101FA000000AD8B467EF0FF0010AD8B492EF0FF02F
:101FB00063EF0FF008501200000E106E000E116E4D
:101FC000000E0F6E0A50D8B4E8EF0FF0EAEF0FF0F2
:101FD000F2EF0FF00B50D8A4F0EF0FF0F2EF0FF08C
:101FE000F6EF0FF0000E0D6E50EF10F0000E106EB9
:101FF000000E0E6E000E0F6E0A500F24026E000EC1
:10200000036E1FEC0EF00F2A030E0F640AEF10F0A0
:102010000CEF10F0FCEF0FF00A501024026E010ECE
:10202000036E1FEC0EF0D00E0C6ECA0EE82EFED71B
:102030000C2EFCD7000E116E0A501124040F026EF4
:102040000E0E036EBFEC10F00D6E0E04D8A42BEF35
:1020500010F02DEF10F03EEF10F01050040DF35083
:10206000010F11240C6E0CC0F6FF100EF76EF86A0B
:102070000B50D96EDA6A0800F5CFDFFF112A030E84
:10208000116445EF10F047EF10F01CEF10F0102A2C
:10209000030E10644EEF10F050EF10F0F8EF0FF059
:1020A0000D501200000E146E1250D8A45AEF10F00A
:1020B0005CEF10F060EF10F0000E156EBDEF10F049
:1020C00012280A6E4CEC12F0156E12C00AF04CEC9D
:1020D00012F0156E000E146E12501424020F0A6EC8
:1020E0004CEC12F0142A070E146479EF10F07BEF19
:1020F00010F06CEF10F0340E136EF20EE82EFED7D7
:10210000132EFCD712C00DF0380E0E6EC8EC13F073
:102110000D0E136EFC0EE82EFED7132EFCD712C048
:102120000DF0380E0E6EC8EC13F0640EE82EFED7DC
:1021300012C00CF0010E0D6EC4EC12F012C00CF0C7
:10214000020E0D6EC4EC12F012C00CF0060E0D6EF5
:10215000C4EC12F012C00CF00C0E0D6EC4EC12F0B8
:1021600012C00CF0380E0D6EC4EC12F012C00CF060
:10217000800E0D6EC4EC12F0156E15501200010E9B
:10218000086E0250D8B4C7EF10F0C9EF10F0EFEFAF
:1021900010F00350D8B4CFEF10F0D1EF10F0EFEF04
:1021A00010F00250D96EDA6ADF30E832E832070BFD
:1021B000046E080E0460DFEF10F0E1EF10F0EFEFB7
:1021C00010F00250D96EDA6ADF50070B046E040E6D
:1021D0000464EDEF10F0EFEF10F0F3EF10F0000EED
:1021E000086E1DEF11F00350D96EDA6A0250E16EED
:1021F000E26AE730E832E832070B046E0250E16E23
:10220000E26AE750070B020DF350800FE16EE26ABD
:10221000E6CF05F0E5CF06F005C0E1FF06C0E2FF1E
:10222000E750076E042A17EF11F0D8900732042EFA
:1022300015EF11F00750010BDF6E0850120004502B
:10224000D96EDA6A0250E16EE26ADFCFE7FF010E73
:102250004E6E3DEF11F00250D96EDA6A04504E24F2
:10226000E16EE26AE750066E0250E16EE26AE75004
:102270000A0DF3500624DF6E4E2A04504E24D96E08
:10228000DA6ADE28D8A447EF11F049EF11F02BEFFE
:1022900011F00550D96EDA6A0350E16EE26ADFCFC1
:1022A000E7FF010E4E6E67EF11F00350D96EDA6A48
:1022B00005504E24E16EE26AE750066E0350E16E6F
:1022C000E26AE7500A0DF3500624DF6E4E2A0550ED
:1022D0004E24D96EDA6ADE28D8A471EF11F073EFBC
:1022E00011F055EF11F01200000E0A6E000E0B6E89
:1022F000000E0C6E000E0D6E06500710081009102F
:10230000D8B485EF11F087EF11F0BDEF11F0010E99
:102310000E6E91EF11F0D890063607360836093662
:102320000E2A09AE96EF11F098EF11F08BEF11F035
:10233000D8900A360B360C360D360650025C075024
:1023400003580850045809500558D8A0AAEF11F0B6
:10235000ACEF11F0B5EF11F00650025E0750035AD2
:102360000850045A0950055A0A80D8900932083298
:10237000073206320E2E98EF11F00AC002F00BC0A1
:1023800003F00CC004F00DC005F012000650071059
:1023900008100910D8B4CFEF11F0D1EF11F001EF10
:1023A00012F0010E0A6EDBEF11F0D89006360736F8
:1023B000083609360A2A09AEE0EF11F0E2EF11F013
:1023C000D5EF11F00650025C07500358085004582E
:1023D00009500558D8A0EFEF11F0F1EF11F0F9EF27
:1023E00011F00650025E0750035A0850045A095073
:1023F000055AD89009320832073206320A2EE2EF27
:1024000011F002C002F003C003F004C004F005C0E4
:1024100005F01200010E156E1250D8A412EF12F042
:1024200014EF12F031EF12F0000E156E4AEF12F0B9
:1024300012C00CF013C0F6FF14C0F7FF000EF86EC8
:102440000F0EF76403D00800F55005D0F6CFE9FF72
:10245000F7CFEAFFEF500D6E89EC12F0156E134ABC
:10246000142A13C0F6FF14C0F7FF000EF86E0F0E0B
:10247000F76403D00800F55005D0F6CFE9FFF7CF99
:10248000EAFFEF500009D8A448EF12F04AEF12F02B
:1024900018EF12F0155012000A50D8B452EF12F093
:1024A00054EF12F072EF12F00A50D96EDA6ADF3090
:1024B000E832E832070B0B6E080E0B6062EF12F089
:1024C00064EF12F072EF12F00A50D96EDA6ADF5040
:1024D000070B0B6E040E0B6470EF12F072EF12F02C
:1024E00076EF12F0000E0C6E87EF12F00AC002F0C9
:1024F00049EC0FF00C6E0AC002F00A50D96EDA6A8D
:10250000000EDFBE010E036E1FEC0EF00C6E0C50C1
:102510001200000E116E0C50D8A491EF12F093EF40
:1025200012F097EF12F0000E106EC2EF12F00CC016
:1025300002F0010E036E1FEC0EF0000E116E0C5037
:102540001124020F026E11C00EF00DC00FF00E2A02
:10255000ACEF12F0D8900F320E2EAAEF12F00F50FF
:10256000010B036E1FEC0EF0112A070E1164BBEF76
:1025700012F0BDEF12F09FEF12F00CC00AF035EC34
:1025800014F0106E10501200000E116E0C50D8A4F2
:10259000CCEF12F0CEEF12F0D2EF12F0000E106E70
:1025A000FDEF12F00CC002F0000E036E1FEC0EF0F7
:1025B000000E116E0C501124020F026E11C00EF0AD
:1025C0000DC00FF00E2AE7EF12F0D8900F320E2E4A
:1025D000E5EF12F00F50010B036E1FEC0EF0112A05
:1025E000070E1164F6EF12F0F8EF12F0DAEF12F0C6
:1025F0000CC00AF035EC14F0106E10501200000EF2
:102600000A6E000E0B6E000E0C6E000E0D6E02A018
:102610000CEF13F00EEF13F016EF13F006500A262E
:1026200007500B2208500C2209500D22D890063674
:10263000073608360936D8900532043203320232A2
:102640000250031004100510D8A429EF13F02BEF4B
:1026500013F007EF13F00AC002F00BC003F00CC038
:1026600004F00DC005F01200000E0F6E000E106E8B
:102670000D50D8A43EEF13F040EF13F044EF13F0E9
:10268000000E0E6E66EF13F0000E0F6E0D500F244D
:102690000A6E4CEC12F00F2A030E0F6452EF13F087
:1026A00054EF13F046EF13F0000E106E0D5010248F
:1026B000040F026E49EC0FF00E6E102A030E106428
:1026C00064EF13F066EF13F056EF13F00E501200A4
:1026D000AE0EF66E280EF76E000EF86E00EE80F06D
:1026E00010EE1CF00900F5CFEEFFE550E150FAE1E5
:1026F000900EF66E280EF76E000EF86E00EE5CF08F
:1027000010EE1EF00900F5CFEEFFE550E150FAE1C2
:102710000001A16BA06B9F6B9E6B9D6B9C6B00EE91
:1027200033F0290EEE6AE806FDE17A907A92000114
:1027300010EF0DF0036E000E056E0250D8B4A3EF3B
:1027400013F0A5EF13F0C6EF13F0010E046EACEF1B
:1027500013F0D8900236042A02AEB1EF13F0B3EFB3
:1027600013F0A9EF13F0D89005360250035CD8A0FF
:10277000BCEF13F0BEEF13F0C1EF13F00250035E95
:102780000580D8900232042EB3EF13F005501200EA
:102790000D50D8A4CEEF13F0D0EF13F0D4EF13F018
:1027A000000E0F6EF4EF13F00DC002F0000E036E7A
:1027B0001FEC0EF00F6E0DC00AF00E380F0B0B6EF3
:1027C000F6EC13F00F6E0DC00AF01EEC14F00F6E55
:1027D0000DC00AF00EC00BF0F6EC13F00F6E0DC03A
:1027E0000AF01EEC14F00F6E0F5012000A50020F88
:1027F000026E0B50010B036E1FEC0EF00A50030F1C
:10280000026ED8900B30010B036E1FEC0EF00A50D5
:10281000040F026E0B40E8423F0B010B036E1FECEE
:102820000EF00A50050F026E0B38E8461F0B010B25
:10283000036E1FEC0EF00C6E0C5012000A28026E94
:10284000010E036E1FEC0EF0030EE82EFED7000003
:102850000A28026E000E036E1FEC0EF00B6E030EC4
:10286000E82EFED700000B5012000A28026E010E5F
:10287000036E1FEC0EF0030EE82EFED700000A28B0
:10288000026E000E036E1FEC0EF00B6E0B5012006A
:10289000890F8A0F8B0F8C0F8D0F010101013139C8
:1028A000030B131B232B333BFFFFFFFFFFFF800FA7
:1028B000810F820F830F840F920F930F940F950F48
:1028C000960F020A121A626A727A016EF290015031
:1028D000D8A46DEF14F06FEF14F071EF14F071EFF6
:1028E00014F01200016EF2900150D8A47AEF14F0A7
:1028F0007CEF14F07EEF14F07EEF14F01200016E06
:10290000F2900150D8A487EF14F089EF14F08BEF08
:1029100014F08BEF14F01200016EF2900150D8A465
:1029200094EF14F096EF14F098EF14F098EF14F081
:102930001200F0921200F0901200F2921200FF00CA
:020000040030CA
:0E000000FF02091EFF8181FF0FC00FE00F40BD
:00000001FF
